:020000040800F2
:1000000038070020ED010008511B0008691A00089C
:100010004D1B0008E303000817250008000000003E
:10002000000000000000000000000000D9230008CC
:10003000F903000800000000551B00089524000883
:10004000070200080702000807020008070200086C
:10005000070200080702000807020008070200085C
:10006000070200080702000807020008070200084C
:10007000070200080702000807020008070200083C
:10008000070200080702000807020008070200082C
:10009000E903000807020008070200080702000839
:1000A000070200080702000807020008070200080C
:1000B00007020008070200080702000807020008FC
:1000C00007020008070200080702000807020008EC
:1000D00007020008070200080702000807020008DC
:1000E00007020008070200080702000800000000DD
:1000F0000000000000000000000000000000000000
:1001000000000000000000000702000807020008CD
:10011000070200080702000807020008070200089B
:10012000070200080702000807020008070200088B
:10013000070200080000000000000000070200089D
:10014000070200080702000807020008070200086B
:1001500000F002F800F03AF80AA090E8000C82449F
:100160008344AAF10107DA4501D100F02FF8AFF27C
:10017000090EBAE80F0013F0010F18BFFB1A43F085
:1001800001031847B42E0000D42E0000103A24BFFB
:1001900078C878C1FAD8520724BF30C830C144BFEC
:1001A00004680C607047000000230024002500262E
:1001B000103A28BF78C1FBD8520728BF30C148BFCA
:1001C0000B6070471FB51FBD10B510BD00F0CFF814
:1001D0001146FFF7F7FF02F03BFA00F0EDF803B429
:1001E000FFF7F2FF03BC00F0F5F800000948804774
:1001F00009480047FEE7FEE7FEE7FEE7FEE7FEE709
:10020000FEE7FEE7FEE7FEE704480549054A064B20
:100210007047000015250008510100083801002032
:1002200038070020380300203803002053EA020C6E
:1002300000F069802DE9F04B4FF00006002B1FBF46
:10024000B3FA83F503FA05F424FA05F65E4012BF0B
:100250001643B2FA82F502FA05F4C5F120051EBF75
:1002600022FA05FC44EA0C04203556EA044C4FEA15
:10027000144418BF641C4FF000084FF0000990426E
:1002800071EB030C39D3002919BFB1FA81F701FAD8
:1002900007F6B0FA80F700FA07F6C7F120071EBF8D
:1002A00020FA07FC46EA0C062037B6FBF4FCA7EB65
:1002B0000507103F07F01F0BCBF120060CFA0BFBD4
:1002C0002CFA06F644BFB3460026202FA4BF5E4694
:1002D0004FF0000B5BEA060C08BF4FF0010B19EB67
:1002E0000B09ABFB027C48EB0608C01B06FB02CCEB
:1002F0000BFB03CC71EB0C01C1E70B4602464146F8
:100300004846BDE8F08B13B54FF000004FF00001F8
:10031000AFF30080BDE81C4070474FF0000200B50D
:10032000134694469646203922BFA0E80C50A0E818
:100330000C50B1F12001BFF4F7AF090728BFA0E8C6
:100340000C5048BF0CC05DF804EB890028BF40F892
:10035000042B08BF704748BF20F8022B11F0804FD4
:1003600018BF00F8012B70477047704770477546FB
:1003700000F02CF8AE4605006946534620F0070011
:10038000854618B020B5FFF73FFFBDE820404FF08D
:1003900000064FF000074FF000084FF0000B21F06F
:1003A0000701AC46ACE8C009ACE8C009ACE8C0093C
:1003B000ACE8C0098D46704710B50446AFF3008025
:1003C0002046BDE81040FFF70ABF00000048704714
:1003D000D400002001491820ABBEFEE72600020031
:1003E000704700BFFEE7000010B5024800F031FA88
:1003F00010BD000058000020704772B600BFFEE735
:1004000010B504467F2005490860082008610449AA
:100410000C702012487002F0B3F810BD1C000020D0
:100420003400002010B5024692F82030012B01D094
:10043000022B06D1106840690843146860610020EF
:1004400010BD506A40F4802050620120F8E7F0B5FA
:1004500004460D461E4694F8207020688368A868FC
:1004600000B900E000BF012F01D0022F7DD103F0C1
:10047000806030B903F0006018B903F080500028A4
:100480007ED0C3F30161012088403060A86860B964
:10049000B5F800C0E86840EA4C5C206800F5C07020
:1004A00000EB0110C0F800C00FE0D5E901C040EA40
:1004B000CC00D5F80CC040EA0C00D4F800C00CF514
:1004C000C07C0CEB011CCCF80000D5F810C02068F3
:1004D00000F5C07000EB0110C0F804C0287D0128B1
:1004E0000ED1206800F5C07000EB0110406840F4A8
:1004F000807C206800F5C07000EB0110C0F804C0DB
:10050000D079000692F806C040EA0C4092F805C087
:1005100040EA0C2092F804C040EA0C00D4F800C075
:100520000CF5C07C0CEB011CCCF80C00D07800065C
:1005300092F802C040EA0C4092F801C040EA0C2058
:1005400092F800C040EA0C00D4F800C00CF5C07C62
:100550000CEB011CCCF80800206800F5C07000EB23
:100560000110006840F0010C01E00FE008E0206895
:1005700000F5C07000EB0110C0F800C00020F0BD15
:10058000606A40F4001060620120F8E7606A40F49D
:10059000802060620120F2E7F0B504460A46216837
:1005A00094F82050012D01D0022D7ED1424901F551
:1005B0000071086840F001000860086820F47C5071
:1005C00008600868566A40EA06200860107D00F05E
:1005D0001F06012000FA06F3C8699843C861A1F517
:1005E0000071D069C8B9D1F80C029843C1F80C0267
:1005F000908880B2968940EA064601F510705769E6
:1006000040F83760108880B2168940EA064601F546
:100610001070576900EBC7004660D069012819D1F6
:10062000D1F80C021843C1F80C02908880B21688E9
:1006300040EA064601F51070576940F83760908926
:1006400080B2168940EA064601F51070576900EB42
:10065000C7004660906928B9D1F804029843C1F8F0
:10066000040204E0D1F804021843C1F8040210693E
:1006700028B9D1F814029843C1F8140204E0D1F863
:1006800014021843C1F81402106A012804D1D1F8E9
:100690001C021843C1F81C02D1F8000220F001002E
:1006A000C1F800020020F0BDFFE7606A40F480203E
:1006B00060620120F7E7000000640040704770B5F9
:1006C000044694F82050012D01D0022D7DD151B95E
:1006D0002068C06800F0030080B9606A40F4001030
:1006E0006062012070BD2068006900F0030028B935
:1006F000606A40F4001060620120F3E7206800F5B2
:10070000D87000EB0110006800F004009060906861
:1007100040B9206800F5D87000EB01100068400D6A
:10072000106007E0206800F5D87000EB0110006849
:10073000C0085060206800F5D87000EB0110006818
:1007400000F00200D060206800F5D87000EB0110C6
:10075000406800F00F00082802D30820106108E06C
:10076000206800F5D87000EB0110406800F00F0021
:100770001061206800F5D87000EB0110406800F4AB
:100780007F40000A9061206800F5D87000EB0110EE
:100790004068000C5061206800F5D87000EB011033
:1007A00080681870206800F5D87000EB0110806830
:1007B00000F47F40000A5870206800F5D87000EB04
:1007C0000110806800F47F0000E03CE0000C9870AD
:1007D000206800F5D87000EB01108068000ED8701A
:1007E000206800F5D87000EB0110C068187120680F
:1007F00000F5D87000EB0110C06800F47F40000ADB
:100800005871206800F5D87000EB0110C06800F442
:100810007F00000C9871206800F5D87000EB011083
:10082000C068000ED87131B92068C06840F020005F
:100830002668F06005E02068006940F02000266826
:10084000306100204EE7606A40F480206062012041
:1008500048E72DE9F05F04460025206846692068D6
:10086000D0F80490206887682068D0F80CA0206831
:10087000D0F810B02068D0F8188006F001000028E9
:1008800055D007F00100C0B101202168886007F051
:10089000020018B1204600F05AFA0EE007F00400FA
:1008A00010B145F4006508E007F0080010B145F408
:1008B000805502E0204600F049FA07F48070C8B184
:1008C0004FF480702168886007F4007018B12046EA
:1008D00000F03FFA0EE007F4806010B145F40055D7
:1008E00008E007F4006010B145F4804502E02046BE
:1008F00000F02EFA07F48030C8B14FF48030216840
:10090000886007F4003018B1204600F024FA0EE0A9
:1009100007F4802010B145F4004508E007F40020FA
:1009200010B145F4803502E0204600F013FA06F0DD
:10093000080038B10AF0100020B145F4007510200D
:100940002168C86006F0040040B10AF0080028B130
:1009500008202168C860204600F0B4F906F00200C3
:1009600038B12068C06800F0030010B1204600F0E4
:10097000ABF906F0400038B10BF0100020B145F49F
:10098000806510202168086106F0200040B10BF05E
:10099000080028B1082021680861204600F0A4F969
:1009A00006F0100038B12068006900F0030010B1B3
:1009B000204600F09AF906F4003040B109F010002A
:1009C00028B1102021684860204600F08FF906F415
:1009D000803040B109F0080028B108202168486043
:1009E000204600F0B9F906F4004088B309F004008D
:1009F00078B306F4807020B108F0010008B145F02A
:100A0000010506F4007020B108F0020008B145F0BD
:100A1000020506F4806020B108F0040008B145F03A
:100A2000040506F40060A0B108F0700088B108F079
:100A30007000402817D006DC10280BD020280CD0DE
:100A4000302819D10CE0502810D0602814D110E0C3
:100A50001DE019E045F008050FE045F010050CE039
:100A600045F0200509E045F0400506E045F0800529
:100A700003E045F4807500E000BF00BF2068806996
:100A800020F07000216888610420216848602DB141
:100A9000606A284360622046FFF710FEBDE8F09FC1
:100AA00070B504460CB9012070BD94F8200010B94F
:100AB000204600F0AFF82068006840F0010021688F
:100AC000086000F0EFFA05460DE000F0EBFA401B7D
:100AD0000A2808D9606A40F400306062052084F872
:100AE00020000120E0E72068406800F001000028B5
:100AF000EBD02068006820F002002168086000F058
:100B0000D1FA05460DE000F0CDFA401B0A2808D9BD
:100B1000606A40F400306062052084F82000012003
:100B2000C2E72068406800F002000028EBD1207E78
:100B3000012806D12068006840F080002168086024
:100B400005E02068006820F0800021680860607E71
:100B5000012806D12068006840F040002168086044
:100B600005E02068006820F0400021680860A07E51
:100B7000012806D12068006840F020002168086044
:100B800005E02068006820F0200021680860E07E11
:100B9000012806D12068006820F010002168086054
:100BA00005E02068006840F0100021680860207FA0
:100BB000012806D12068006840F00800216808601C
:100BC00005E02068006820F0080021680860607F68
:100BD000012806D12068006840F004002168086000
:100BE00005E02068006820F0040021680860D4E96E
:100BF0000201084321690843616908436168491E8D
:100C000008432168C86100206062012084F8200048
:100C1000002049E710B586B00446002002900390FA
:100C20000490059023492068884241D100BF2248A2
:100C3000C06940F000702049C8610846C06900F0F2
:100C40000070019000BF00BF00BF0846806940F0FF
:100C5000080088610846806900F00800019000BF24
:100C600000BF8815029000200390049002A9134849
:100C700000F088F84FF400700290022003900320E7
:100C8000059002A90D4800F07DF800BF0C494868A6
:100C900020F4C04040F0E06040F48040486000BF75
:100CA00000221146142000F083FA142000F070FA9C
:100CB00006B010BD0064004000100240000C01406E
:100CC000000001407047000010B504460449206848
:100CD000884204D1034801F05BFC01F063FD10BDC4
:100CE000006400403C00002070477047704770B5BA
:100CF000044694F82000012822D1022084F8200024
:100D00002068006820F001002168086000F0CAF93E
:100D100005460DE000F0C6F9401B0A2808D9606AB4
:100D200040F400306062052084F82000012070BD8E
:100D30002068406800F001000028EBD16062F6E70F
:100D4000606A40F4002060620120F0E7704770475D
:100D500070477047704770477047000070B5044691
:100D600000F0A0F906462546681C10B1044800783A
:100D7000054400BF00F096F9801BA842FAD370BD6D
:100D8000500000202DE9F8470346002294466EE10A
:100D90004FF0010808FA02F4D1F8008008EA0400D4
:100DA000A0427DD1DFF8DCA2D1F80480A8EB0A09CB
:100DB000D0453AD014DCB8F1030F50D009DCB8F1BB
:100DC000000F31D0B8F1010F1CD0B8F1020F49D19A
:100DD00020E0B8F1110F18D0B8F1120F42D11EE087
:100DE000B9F5881F25D006DCB9F5803F20D0B9F5CC
:100DF000801F37D11AE0B9F5001F18D0B9F5041FCC
:100E000030D117E0D1F80CC02DE0D1F80C8008F1FA
:100E1000040C28E0D1F80C8008F1080C23E0D1F88C
:100E20000C8008F10C0C1EE000BF00BF00BF00BF2B
:100E300000BF00BFD1F80880B8F1000F02D14FF019
:100E4000040C0BE0D1F80880B8F1010F03D14FF08A
:100E5000080C1C6102E04FF0080C5C6103E04FF0ED
:100E6000000C00E000BF00BFFF2801D8984601E059
:100E700003F104084646FF2802D84FEA820803E03F
:100E8000A2F108084FEA88084746D6F800804FF0DC
:100E90000F0909FA07F928EA09080CFA07F900E02E
:100EA00088E048EA0908C6F80080D1F8048008F014
:100EB0008058B8F1805F7DD100BFDFF8CC81D8F8D1
:100EC000188048F00108DFF8C091C9F81880C846BA
:100ED000D8F8188008F00108CDF8008000BF00BFE6
:100EE0004FEAB9384FEA920958F829504FEA827808
:100EF0004FEA18794FF00F0808FA09F825EA0805B3
:100F0000DFF88881434502D14FF0000816E0DFF892
:100F10008081434502D14FF001080FE0DFF8748172
:100F2000434502D14FF0020808E0DFF86C814345E9
:100F300002D14FF0030801E04FF004084FEA827934
:100F40004FEA197908FA09F848EA0505DFF84C81F3
:100F50004FEA920948F82950D1F8048008F4801823
:100F6000B8F5801F0AD1DFF83881D8F8008048EA48
:100F70000008DFF82C91C9F8008009E0DFF8208133
:100F8000D8F8008028EA0008DFF81491C9F800803A
:100F9000D1F8048008F40018B8F5001F10D1DFF86C
:100FA000008108F10408D8F8008048EA0008DFF85A
:100FB000F09000E05AE009F10409C9F800800DE062
:100FC000DFF8DC8008F10408D8F8008028EA00087F
:100FD000DFF8CC9009F10409C9F80080D1F8048049
:100FE00008F40038B8F5003F0ED1DFF8B480A8F15E
:100FF0000408D8F8008048EA0008DFF8A490A9F1B6
:101000000409C9F800800DE0DFF89480A8F1040815
:10101000D8F8008028EA0008DFF88490A9F10409D4
:10102000C9F80080D1F8048008F48038B8F5803F12
:101030000ED1DFF86C80A8F10808D8F8008048EAE3
:101040000008DFF85C90A9F10809C9F800800DE0FC
:10105000DFF84C80A8F10808D8F8008028EA0008DA
:10106000DFF83C90A9F10809C9F80080521CD1F8BA
:10107000008028FA02F8B8F1000F7FF489AEBDE8CD
:10108000F887000000001110001002400008014025
:10109000000C014000100140001401400800014014
:1010A0000804014001480068704700004800002023
:1010B00003480068034909780844014908607047FB
:1010C000480000205000002010B50848006840F09B
:1010D000100006490860032000F0A8F80F2000F077
:1010E00007F800F02BF8002010BD0000002002409F
:1010F00070B504460E4800784FF47A71B1FBF0F0F9
:101100000C490968B1FBF0F5284600F093FC08B1E2
:10111000012070BD102C07D200222146501E00F085
:1011200047F80548046001E00120F2E70020F0E7FD
:1011300050000020540000204C00002008B500BFE3
:101140001148806940F001000F49886108468069B4
:1011500000F00100009000BF00BF00BF0846C0695A
:1011600040F08050C8610846C06900F0805000908F
:1011700000BF00BF00BF0549486820F0E06040F0B4
:101180000070486000BF08BD001002400000014030
:1011900001460846002809DB00F01F0301229A409F
:1011A00043099B0003F1E023C3F8002100BF70470F
:1011B0002DE9F05F80460D461646002701F0AEF996
:1011C000074639462A46334601F00700C0F1070AB0
:1011D000BAF1040F02D94FF0040A01E0C0F1070A86
:1011E000D14600F1040ABAF1070F02D24FF0000A0B
:1011F00001E0A0F1030AD4464FF0010A0AFA09FA05
:10120000AAF1010A0AEA020A0AFA0CFA4FF0010BE3
:101210000BFA0CFBABF1010B0BEA030B4AEA0B04D4
:101220002146404601F082F9BDE8F09F00BF00F082
:101230000702064B19684FF6FF031940044B0B4396
:1012400043EA0221014B196000BF70470CED00E03A
:101250000000FA0570B504460D460CB9012070BDBA
:101260005A48006800F00700A8420ED257480068AC
:1012700020F007002843554908600846006800F040
:101280000700A84201D00120E9E7207800F0020021
:1012900002281DD1207800F00400042805D14C4814
:1012A000406840F4E0604A494860207800F0080057
:1012B000082805D14648406840F4605044494860D9
:1012C0004348406820F0F000A16808434049486066
:1012D000207800F0010078B36068012806D13C480E
:1012E000006800F4003090B90120B8E76068022877
:1012F00006D13748006800F0007040B90120AEE721
:101300003348006800F0020008B90120A7E7304820
:10131000406820F00300616808432D494860FFF7EA
:10132000C1FE064609E0FFF7BDFE801B41F2883191
:10133000884202D9032092E707E02548406800F080
:101340000C006168B0EB810FEDD12048006800F01F
:101350000700A8420ED91D48006820F00700284366
:101360001A4908600846006800F00700A84201D04A
:10137000012074E7207800F00400042807D1144805
:10138000406820F4E060E168084311494860207833
:1013900000F00800082808D10D48406820F460508B
:1013A000216940EAC1000A49486000F019F808497B
:1013B0004968C1F30311074A515CC84006490860F7
:1013C00006480068FFF794FE002048E7002002402E
:1013D0000010024020300008540000204C00002083
:1013E0002DE9FE4F4FF00009CB46CA4600240020ED
:1013F0000290019000902F48D0F8049009F00C0062
:1014000000284FD0042802D008284AD102E02A48F8
:1014100002904AE02948C9F38341445C09F48030D2
:10142000C0B32448C06A00F00F00254911F800B08D
:101430002048C06A00F4803008B31E48C06AC0F378
:101440000310401C01901B48C06AC0F30320801C9D
:1014500000900198A0FB0B50064617490098A1FB8D
:1014600000120023A1FB047C02FB04C201FB032148
:101470002A4633463846FEF7D9FE824603E00E4838
:101480006043B0FBFBFA0D48407BA04206D14FEA17
:101490005A0A03E0FFE70B4804FB00FACDF808A066
:1014A00003E000BF0448029000BF00BF0298BDE8FF
:1014B000FE8F00000010024000127A000230000887
:1014C0001030000800093D00F8B504460CB90120B1
:1014D000F8BD207800F00100002878D0FD48406871
:1014E00000F00C0004280CD0FA48406800F00C0012
:1014F000082811D1F748406800F48030B0F5803FEB
:101500000AD1F448006800F4003000285FD0A068D9
:1015100000285CD10120DBE700BFA068B0F5803F68
:1015200006D1EC48006840F48030EA49086028E0C1
:10153000A06858B9E748006820F48030E5490860A1
:101540000846006820F4802008601AE0A068B0F522
:10155000A02F0BD1DF48006840F48020DD490860EF
:101560000846006840F4803008600AE0D948006806
:1015700020F48030D74908600846006820F48020B5
:10158000086000BFA06888B1FFF78CFD054606E043
:10159000FFF788FD401B642801D9032098E7CD4858
:1015A000006800F400300028F2D010E0FFF77AFD68
:1015B000054606E0FFF776FD401B642801D90320AD
:1015C00086E7C448006800F400300028F2D1207893
:1015D00000F00200022857D1BE48406800F00C001D
:1015E00050B1BC48406800F00C00082818D1B94838
:1015F000406800F4803098B9B648006800F00200F6
:1016000020B16069012801D0012061E7B14800687C
:1016100020F0F800A16940EAC100AE49086033E05B
:101620006069E8B10120AC490860FFF73BFD054661
:1016300006E0FFF737FD401B022801D9032047E7EA
:10164000A448006800F002000028F2D0A148006819
:1016500020F0F800A16940EAC1009E49086013E04B
:1016600000209D490860FFF71DFD054606E0FFF7D5
:1016700019FD401B022801D9032029E7954800687D
:1016800000F002000028F2D1207800F008000828BD
:101690002DD1E069B8B1012090490860FFF702FD43
:1016A000054606E0FFF7FEFC401B022801D9032097
:1016B0000EE78848406A00F002000028F2D00120BE
:1016C00000F04AFA13E0002084490860FFF7EAFCC2
:1016D000054606E0FFF7E6FC401B022801D903207F
:1016E000F6E67C48406A00F002000028F2D120783B
:1016F00000F00400042873D100277648C06900F088
:10170000805070B900BF7348C06940F08050714983
:10171000C8610846C06900F08050009000BF00BF5B
:1017200001276F48006800F48070B0B96C48006809
:1017300040F480706A490860FFF7B4FC054606E093
:10174000FFF7B0FC401B642801D90320C0E66448C1
:10175000006800F480700028F2D000BF20690128E2
:1017600006D15C48006A40F001005A49086227E04F
:10177000206958B95748006A20F0010055490862AD
:101780000846006A20F00400086219E02069052874
:101790000BD15048006A40F004004E4908620846E8
:1017A000006A40F0010008620AE04A48006A20F03E
:1017B0000100484908620846006A20F004000862F7
:1017C00000BF2069A0B1FFF76DFC054609E0FFF7F7
:1017D00069FC401B41F28831884202D9032077E638
:1017E00022E03C48006A00F002000028EFD012E03E
:1017F000FFF758FC054608E0FFF754FC401B41F298
:101800008831884201D9032062E63248006A00F03C
:1018100002000028F0D1012F05D12E48C06920F028
:1018200080502C49C86100BFE06AA0B329484068D5
:1018300000F48030B0F5803F0ED12648406800F0BB
:101840000C00082808D12348C06A00F48030B0F5A5
:10185000803F01D101203BE6E06A022850D11D48BB
:10186000006800F0805040B11A48C06A00F0F001F2
:10187000606B814201D001202AE60020164988666B
:10188000FFF710FC054607E0FFF70CFC401B64283F
:1018900002D903201CE64DE00E48006800F000600D
:1018A0000028F1D10B48C06A20F0F000616B0843BA
:1018B0000849C8620846C06A20F47060216B08437A
:1018C0000449C862012004498866FFF7EBFB05461E
:1018D0000FE000000010024000004242800442423B
:1018E00000700040FFF7DEFB401B642801D9032095
:1018F000EEE54E48006800F000600028F2D019E0E4
:101900004A48C06A20F480304849C86200204849EB
:101910008866FFF7C7FB054606E0FFF7C3FB401BE1
:10192000642801D90320D3E54048006800F0006036
:101930000028F2D1206AE0B33C48406800F00C0077
:1019400008285ED0206A022846D10020384908665F
:10195000FFF7A8FB054606E0FFF7A4FB401B0228A3
:1019600001D90320B4E53148006800F00070002878
:10197000F2D1606AB0F5803F0DD12C48C06A616831
:1019800008432A49C8620846C06A20F00F00E1688F
:1019900008432649C862D4E9090108432349496834
:1019A00021F4741108432149486001202049086648
:1019B00000E038E0FFF776FB054606E0FFF772FB34
:1019C000401B022801D9032082E51848006800F076
:1019D00000700028F2D026E0002015490866FFF7C5
:1019E00061FB054606E0FFF75DFB401B022801D9BD
:1019F00003206DE50D48006800F000700028F2D16A
:101A000011E0206A012800D162E50848466806F422
:101A10008031606A814204D106F47011A06A81426B
:101A200001D0012054E5002052E5000000100240E2
:101A30000000424270B504462546681EB0F1807F22
:101A400001D301200FE0681E4FF0E02148610F2113
:101A50004FF0FF3000F06AFD00204FF0E021886178
:101A600007200861002070BD00BFFEE700B58BB005
:101A70001E481F4908600320486000211C488160FF
:101A8000C1604FF4E02101614FF400114161002178
:101A9000017641768176C17601774177FFF700F8CC
:101AA00008B1FEF7AAFC0020069001900290039076
:101AB00004900790012008900020059001200990D3
:101AC00001A90B48FEF768FD08B1FEF796FC08482F
:101AD000FFF70DF908B1FEF790FC02210448FEF76C
:101AE000A1FC08B1FEF789FC0BB000BD006400400A
:101AF0005800002008B500BF1348806940F020005E
:101B0000114988610846806900F02000009000BFFC
:101B100000BF00BF0846806940F0040088610846A5
:101B2000806900F00400009000BF00BF00BF0846BD
:101B3000806940F0080088610846806900F008006C
:101B4000009000BF00BF08BD0010024000BFFEE7CC
:101B500000BFFEE77047000008B508490968C908DA
:101B60004FF47A72B1FBF2F14143009100BF00BF24
:101B700000994A1E00920029F9D108BD54000020A6
:101B80002DE9F04107460C4615461E46DDF8188043
:101B90003B488079022801D100F0F0FB6A22002145
:101BA00047F2050000F032FC00F0C0FB3548406809
:101BB00020F0F85000F180703249486008464068D3
:101BC00020F0FF007F3048600846406820F0604009
:101BD000486010232C4A2D49384600F009FD294958
:101BE000496860F3172127484160082025490861AA
:101BF0001023274A2749204600F0FAFC000A26490C
:101C000008701023224A2349204600F0F1FC2249A3
:101C100048701023214A2249284600F0E9FC000AB6
:101C20001D49887010231D4A1D49284600F0E0FC1C
:101C30001949C87010231B4A0021304600F0D8FC17
:101C4000000A154908711023164A0021304600F099
:101C5000CFFC114948711023134A0021404600F07F
:101C6000C7FC000A0C49887110230F4A0021404626
:101C700000F0BEFC0849C87100F0B2FCBDE8F0817C
:101C8000B8000020040000200000B0400000B0C0F8
:101C9000B81E4941B81E49C1340000200000484226
:101CA000000048C20000FA430000A04010B50446FE
:101CB0001748406820F0F85000F1B85014494860C7
:101CC0000846406820F0FF007F30486008464068C2
:101CD00020F060404860FD210D48406861F3172006
:101CE0000B4948600820086101200A490870022059
:101CF0004870032088700420C870052008710620F1
:101D00004871084684710820C87100F069FC10BD54
:101D1000040000203400002010B504467F2009494B
:101D2000086008200861FF20074908704870887023
:101D3000C8700871487108468471FD20C87100F0B0
:101D40001FFC10BD1C000020340000202DE9F047CE
:101D500007460C4615461E46DDF820807F20304998
:101D600008600820086110232E4A2F49384600F0E9
:101D70003FFC000A2D49087010232A4A2A49384698
:101D800000F036FC294948700C23294A294920468D
:101D900000F02EFCC0F30710244988700C23244A5D
:101DA0002449204600F024FC4FEA00190C23224A63
:101DB0000021284600F01CFC49EA20201B49C8707D
:101DC0000C231D4A0021284600F012FC1749087117
:101DD0000C231A4A0021304600F00AFCC0F3071019
:101DE000124948710C23154A0021304600F000FCCE
:101DF0004FEA00190C23124A1249404600F0F8FB42
:101E000049EA2020094988710C230D4A0D494046B2
:101E100000F0EEFB0549C87100F0B2FBBDE8F087A9
:101E20001C000020B81E4941B81E49C134000020E2
:101E300000004842000048C20000FA430000A040F1
:101E40000000B0400000B0C010B504469CB97F202F
:101E50002249086008200861FF2021490870487065
:101E60008870C8700871487108468471FD20C87177
:101E700000F086FB30E0022C2ED11A48406820F09A
:101E8000F85000F1C850174948600846406820F0F3
:101E9000FF007F3048600846406820F0604048609E
:101EA000FD211048406861F317200E494860082062
:101EB000086101200A4908700220487003208870D8
:101EC0000420C870052008710620487108468471F6
:101ED0000820C87100F084FB10BD00001C00002029
:101EE000340000200400002010B57F20084908605D
:101EF00008200861FF200749087048708870C87082
:101F0000087148718871F820C87100F039FB10BD64
:101F10001C0000203400002070B505460C4640F23D
:101F20007F10054908600820086104480560446086
:101F300000F026FB70BD00001C00002034000020D3
:101F400010B504467F200949086008200861FF2079
:101F50000749087048708870C87008714871084651
:101F60008471F920C87100F00BFB10BD1C0000202B
:101F70003400002010B504467F200949086008207D
:101F80000861FF200749087048708870C8700871A0
:101F9000487108468471FA20C87100F0F1FA10BD4A
:101FA0001C0000203400002010B504467F200949A1
:101FB000086008200861FF20074908704870887091
:101FC000C8700871487108468471FC20C87100F01F
:101FD000D7FA10BD1C0000203400002010B57F206F
:101FE0000849086008200861FF2007490870487008
:101FF0008870C870087148718871FE20C87100F03F
:10200000BFFA10BD1C0000203400002070B505464A
:102010000C4640F27F20054908600820086104480A
:102020000560446000F0ACFA70BD00001C000020A8
:102030003400002010B57F2008490860082008619E
:10204000FF200749087048708870C870087148718F
:102050008871FC20C87100F093FA10BD1C000020AC
:102060003400002010B57F2008490860082008616E
:10207000FF200749087048708870C870087148715F
:102080008871FD20C87100F07BFA10BD1C00002093
:102090003400002010B51848406820F0F85000F1D6
:1020A000B050154948600846406820F0FF007F3076
:1020B00048600846406820F060404860FD210E48B6
:1020C000406861F317200C4948600820086101202E
:1020D0000A49087002204870032088700420C870E4
:1020E0000520087106204871072088710820C871F2
:1020F00000F076FA10BD000004000020340000203B
:1021000070B504460D460D488079022801D100F0D3
:1021100035F96A220A4947F2050000F077F900F024
:1021200005F97022214647F2170000F06FF970227E
:10213000294647F2160000F069F970BDB80000208A
:102140000000A04070B504460E4615461048807940
:10215000022801D100F012F96A224FF07E5147F2B5
:10216000050000F053F900F0E1F87022214647F233
:10217000240000F04BF97022314647F2250000F0B0
:1021800045F97022294647F2160000F03FF970BD6C
:10219000B800002010B504461748406820F0F850F9
:1021A00000F1C050144948600846406820F0FF0024
:1021B0007F3048600846406820F060404860FD215C
:1021C0000D48406861F317200B49486008200861FA
:1021D00001200A49087002204870032088700420FA
:1021E000C8700520087106204871084684710820CF
:1021F000C87100F0F5F910BD040000203400002083
:1022000070B504460E46154610488079022801D163
:1022100000F0B4F86A22510747F2050000F0F6F822
:1022200000F084F87022214647F2180000F0EEF822
:102230007022314647F2220000F0E8F87022294669
:1022400047F20A0000F0E2F870BD0000B80000207C
:1022500010B504460A488079022801D100F08EF8B2
:102260006A22084947F2050000F0D0F800F05EF855
:102270007022214647F2060000F0C8F810BD0000A9
:10228000B80000200000404010B5044600F076F889
:102290001048406820F0F85000F1E0600D494860B7
:1022A0000846406820F0FF007F30486008464068DC
:1022B00020F060404860FD2040EA04210548406865
:1022C00061F31720034948600820086100F088F98D
:1022D00010BD00000400002010B500F04FF81148B8
:1022E000406820F0F85000F1C0600E494860084690
:1022F000406820F0FF007F3048600846406820F0CA
:1023000060404860FD210748406861F31720054997
:1023100048600820086101200349087000F060F956
:1023200010BD0000040000203400002010B511484A
:10233000406820F0F85000F140700E4948600846AF
:10234000406820F0FF007F3048600846406820F079
:1023500060404860FD210748406861F31720054947
:10236000486008200861044800210160416000F0D5
:1023700037F910BD040000203400002010B51448C7
:10238000406820F0F85000F180601149486008462C
:10239000406820F0FF007F3048600846406820F029
:1023A00060404860FD210A48406861F317200849F1
:1023B000486008200861002004E00021054A11540B
:1023C000411CC8B20828F8DB00F00AF910BD000073
:1023D00004000020340000207047000070B504465F
:1023E0000D467F20074908600820086106490C70E7
:1023F0002012487000208870C8700846456000F0C0
:10240000BFF870BD1C0000203400002070B50446E9
:102410000D4616461C48406820F0F85000F19050D8
:10242000194948600846406820F0FF007F30486046
:102430000846406820F060404860FD21124840682E
:1024400061F317201049486010490C702012487041
:1024500000208870C870702E02D1084645600DE0DB
:102460006A2E0BD100200A490876284600F0D6FBD8
:1024700006490871002048718871C87100F0B0F8F1
:102480000120FEF76BFC70BD04000020340000202A
:10249000B800002010B5FEF70BFE10BD00B593B0DC
:1024A000382105A8FDF739FF14216846FDF735FFEF
:1024B00001200590000407900020089001200A9058
:1024C0000020069002200D90C1030E914FF4E01100
:1024D0000F910020109005A8FEF7F6FF08B1FDF758
:1024E0008CFF0F20009002200190002002904FF4FA
:1024F000806003900020049002216846FEF7AAFE47
:1025000008B1FDF77AFF01200149086713B000BD4B
:1025100000004242704700BFFEE70000024800682A
:10252000C0F30220704700000CED00E010B5002859
:1025300004DB0A07130E054A135406E00A07140EBB
:10254000034A00F00F031B1FD45410BD00E400E049
:1025500018ED00E070B504460D4606480561064BCF
:10256000224601460548FDF772FF08B1012070BD03
:102570000020FCE71C000020440000205800002040
:1025800010B508210148FFF7E5FF10BD3400002019
:1025900010B504462346054A00210548FEF78FF88A
:1025A00008B1002010BD0148007CFBE7800000203E
:1025B0005800002070B504460D4606480561064BDC
:1025C000224601460548FDF742FF08B1012070BDD3
:1025D0000020FCE7040000204400002058000020F8
:1025E00010B508210148FFF7E5FF10BD34000020B9
:1025F0002DE9FC5F07460D4614461E462946204637
:1026000000F08AFC0190A8462146384600F052FCB2
:1026100001D2274605E02946384600F04BFB00D2A0
:102620002F460121B140481E00F018FB8346414669
:10263000384600F071FC5946009000F06FFB82466E
:10264000019900F00DFA814600F0CCFABDE8FC9F3C
:1026500008B5FEF739FDFFF721FFFFF74BFAFFF74B
:1026600005FA95E04B4800781A2810D2DFE800F010
:102670000D10131D252C34393C4043474B4F525508
:10268000595D616B71777A7D8186FFF74FFE7BE044
:10269000FFF774FE78E0404803464FF07E52002179
:1026A00000901046FFF76CFA6EE04FF080424FF05A
:1026B0007E513A48FFF746FD66E04FF07E514FF0FD
:1026C0008140FFF71DFD5FE04FF080424FF07E51EB
:1026D0000846FFF795FD57E04FF07C50FFF7B8FD37
:1026E00052E0FFF7F9FD4FE00120FFF7CDFD4BE091
:1026F000FFF7D0FC48E00020FFF7D8FA44E00120C3
:10270000FFF748FD40E00120FFF79EFB3CE0FFF7AC
:1027100091FC39E0FFF7A6FC36E0FF20FFF7FCFA5A
:1027200032E00120FFF740FC2EE00120FFF722FC01
:102730002AE0194803464FF07E52002100901046CF
:10274000FFF704FB20E04FF07E510020FFF7E4FB91
:102750001AE04FF080411248FFF758FC14E0FFF7F1
:102760003DFC11E0FFF7C0FB0EE00120FFF7E8FBA6
:102770000AE047F20500FDF743FE05E0084947F28D
:102780000500FFF72BFE00BF00BF6420FEF7E6FA4E
:1027900068E7000000000020CDCCCC3D0000C04028
:1027A000000020412DE9F0475C484068002878D0BF
:1027B0005A488088C0F3072958484068000AC0F387
:1027C00040305749087055484068000AC0F300304F
:1027D000487052484068000AC0F3C02088704F48D3
:1027E0004068000AC0F38020C8704C484068000A66
:1027F000C0F34020087149484068000AC0F3002037
:10280000487146484068C0F30F20840B022C00DD5D
:10281000002443488471434840784249097840EA9B
:1028200001254048C0783F49897840EA01263D4863
:1028300040793C49097940EA01273A48C079394949
:10284000897940EA01283848406869F30700364929
:102850004860324801793448406861F317203249B2
:102860004860324A3249284600F06EF82C498860A8
:10287000304A3149304600F067F82949C8602F4A8C
:102880002F49384600F060F825490861404600F0BD
:10289000FDF982462B4900F0E3F8214948613BE00D
:1028A000FFE71E480068B8B31E4880781D49497884
:1028B00040EA01241B4800791A49C97840EA0125F9
:1028C000184840791749097940EA013086B215481D
:1028D000C0791449897940EA0127144A14492046ED
:1028E00000F032F80E498860124A1349284600F079
:1028F0002BF80B49C860114A1149304600F024F802
:1029000007490861384600F0C1F980460D4900F0DA
:10291000A7F80349486100BFBDE8F08780000020A8
:10292000B80000203C00002004000020B81E4941EF
:10293000B81E49C100004842000048C20000B04033
:102940000000B0C0000020412DE9F04705460E46CA
:1029500014463146204600F0DFFA8146284600F052
:1029600095F98246064900F07BF88046494600F01A
:10297000D5F90746314600F005F8BDE8F0870000BC
:1029800000FF7F4790EA010F48BF81F0004100F14E
:10299000CA82421A3CBF801A89184FEAD0524FF0BF
:1029A0007F4C1CEA410FA2EBD15318BF9CEA026F87
:1029B00000F03B804FF0004C4CEA00204CEA012133
:1029C00021FA03FC10EB0C0C1ED202F1FF325FEA7D
:1029D0001C2040EBC25038BF70471CF07F0F4FEAFD
:1029E000400C18BFBCF17F4F38BF7047C3F12003C4
:1029F000994008BF20F00100BCF17F4F38BF7047FD
:102A0000A0F1C04000F051BA4FEA3C00000A40EB90
:102A1000C25028BF1CF0FF0F4FEA400CE6D018BF91
:102A2000BCF17F4F38BF7047EAE79CEA026F05D0E0
:102A300010EA5C0F08BF00F00040704710B500F0CE
:102A4000EEF900BF64FBBE3E401058BFC0F14040ED
:102A5000491058BFC1F140418142EFF300807047F7
:102A60004FF47F0C1CEAD0121EBF1CEAD11392EA6D
:102A70000C0F93EA0C0F00F0858090EA010F48BF1D
:102A800042F4807240F4000C41F400002CF07F41CD
:102A900020F07F4000B58142A2EB03020FF2081C38
:102AA000ACEB504EC0F100009EF800E04FEA4E0E35
:102AB00000FB0EFC38BF49004FEA2C1C02F5FA025D
:102AC0000CFB0EF34FEACE1E4FEA112C4FEAC12148
:102AD0000EEB635E42EB22420EFB0CFC4FEA1C53F2
:102AE00000FB03114FEA112C4FEA01310EFB0CFCE5
:102AF0004FEADC4C00FB0C11C14228BF09184CEB1B
:102B000003335DF804EB10EB410143EBC250B2F527
:102B10007C0F38BF704729D512F0F00F1CBF00F1B1
:102B2000C04000F000407047008182838485868722
:102B300088898B8C8D8E8F919293959697999A9C7C
:102B40009D9FA0A2A3A5A7A8AAACAEB0B2B3B5B7EB
:102B5000B9BCBEC0C2C5C7C9CCCED1D4D7D9DCDFC1
:102B6000E2E6E9ECF0F3F7FAFE0000004FEA400C71
:102B70000CF1807CBCF17E4F28BF7047B0F1C040A3
:102B800000F093B990EA010F0CEAD11348BF42F468
:102B90008072624538BF634507D213F47F0F16D0A9
:102BA00080EA010000F00040704710B500F037F9EE
:102BB000097EFC3E00F005B880EA010000F000400C
:102BC000704780EA010000F0004000F06EB912F496
:102BD0007F0F04BF0248704780EA010000F065B92A
:102BE0000000C07F41000B0ED3F19E0208D950F4C3
:102BF00000034FEA032323FA02F048BF4042704724
:102C000010B500F00CF900BF4992248000207047F5
:102C10006FF0004282EA200070470000C10DD1F140
:102C20009E0206DB4FEA002343F0004323FA02F042
:102C30007047004207D54FEA4001B1F1FE4F02D282
:102C40004FF00000704710B500F0E9F84992248079
:102C5000002070476FEA20007047000010F000412C
:102C600048BF4042B0FA80F310FA03F2C3F19D036B
:102C70000BD051EAC35101EB1220530638BF704705
:102C800000F1010008BF20F001007047B0FA80F3A6
:102C900010FA03F2C3F19D030AD0D90501EB12200B
:102CA000530638BF704700F1010008BF20F0010053
:102CB0007047000050EA010C00F113801CF5000F72
:102CC00058BFBCF5000F01D48842704707D710F5F4
:102CD000000F58BF11F5000F15D488427047894284
:102CE00070471CF5000F04D5BCF5000FF7D58142E5
:102CF00070474FF0807C1CEB400F38BF1CEB410F3E
:102D000001D28142704710B500F089F89224490041
:102D10004FF000504FF08051FFF796BE4FF47F0CFC
:102D20001CEAD0121EBF1CEAD11392EA0C0F93EAE0
:102D30000C0F00F0478090EA010F48BF42F4807208
:102D40004FF0004C4CEA00204CEA012102EB030258
:102D5000A0FB0113A2F50002002918BF43F00103F4
:102D60005B0028BF4FEA330342EB22425FEA132C99
:102D70004CEBC2502EBFBCEB436FB2F57C0F7047DB
:102D80004FEA036CBCF1004F08BF20F00100B2F520
:102D90007C0F38BF70470BD582F0FF0212F5803FE1
:102DA000C8BF704700F1C040D8BF00F00040704776
:102DB00000F5000C5FEA4C0C48BF7047B0F1C04012
:102DC00000F073B890EA010F0CEAD11348BF42F447
:102DD0008072624538BF634504D280EA010000F08A
:102DE0000040704710B500F01AF800BF8900013E9E
:102DF00000F007B800F009B85FEA410C5FEA1C6C0C
:102E000008D080EA010000F050B85FEA400C5FEAA9
:102E10001C6CF6D14FF00040A0F5800070470EF119
:102E2000020E2EF0030E5EF8044B244204D44FEA47
:102E30004102B2F17F4F11D84FEA4003B3F17F4F07
:102E40000CD80ED14FEAD07CB2F17F4F0CEB4C0C7A
:102E50000CF1020C08BF4CEBD17C04E04FF0080CE5
:102E600001E04FEAD17C0CEB4C0324FA03F404F0AC
:102E70000704B4F1040C06D20EEB840CBDE810403C
:102E80004CF0010C6047DFE80CF0070802024FF03D
:102E90000040A0F5800010BD0846420018BFD2F1E6
:102EA000807288BF00F0004010BDFF2141EAD05081
:102EB000C005704751EA000C00F113801CF5000FAB
:102EC00058BFBCF5000F01D48142704707D711F5F8
:102ED000000F58BF10F5000F15D48142704789428A
:102EE00070471CF5000F04D5BCF5000FF7D58842DC
:102EF00070474FF0807C1CEB410F38BF1CEB400F3C
:102F000001D28842704780EA010081EA000180EA2C
:102F10000100FFF7F8BE000090EA010F48BF81F002
:102F200000413FF536AD421A04D882F00042A0EBD2
:102F3000020011444FEAD0524FF07F4C1CEA410F7F
:102F4000A2EBD15318BF9CEA026F4AD04FF0004C5D
:102F50004CEA00204CEA012121FA03FCB0EB0C0CF6
:102F60000FD412F0FE0F36D05FEA4C001DD50012D0
:102F700040EBC25038BF70471CF03F0F18BF70477E
:102F80000BE0A2F101025FEA1C2040EBC25038BF07
:102F900070471CF07F0F18BF7047C3F120039940A2
:102FA00014BF401E20F00100704780084FEA122332
:102FB00008BF7047B0FA80FCA2EB0C02CCF1280CE1
:102FC00060FA0CF093EA122F04BF00EBC250704776
:102FD0004FEAC3707047130A5FEADC1008BF7047FE
:102FE000F6E79CEA026F04D010EA5C0F08BF0020ED
:102FF000704710B5FFF713FF40DFF63E81F0004049
:103000007047000004050607080900000000000DD5
:103010000102030405060708090A0B0C0D0E0F1028
:103020000000000000000000010203040607080978
:1030300000000000010203045830000800000020D6
:10304000580000008C010008B03000085800002033
:10305000E0060000A80100080000000000000000D9
:10306000FF00000004000000000000000800000055
:103070000000000000000000000000000000000050
:103080000000000008000000000000000000000038
:103090000000000000000000000000000000000030
:1030A00000000000100000000100000000127A0083
:04000005080001519D
:00000001FF
